S01200004C696461722D746573742E7372656339
S113000072C000009EC000009CC000009AC00000A6
S113001098C0000096C0000094C0000092C0000088
S113002090C000008EC000008CC000008AC0000098
S113003088C0000086C0000084C0000082C00000A8
S113004080C000007EC000007CC000007AC00000B8
S1130050DDC0000076C0000074C0000072C0000063
S113006070C000003FC100006CC000006AC0000006
S113007068C0000066C0000064C0000062C00000E8
S113008060C000005EC000005CC000005AC00000F8
S113009039C1000056C0000054C0000052C0000026
S11300A050C000004EC000004CC000004AC0000018
S11300B048C0000046C0000044C0000042C0000028
S11300C040C000003EC000003CC000002BC1000046
S11300D038C0000036C0000034C0000032C0000048
S11300E030C00000240111241FBECFEFD1E2DEBFD7
S11300F0CDBF00E00CBF12E0A0E0B2E0E6EEF6E017
S113010000E00BBF02C007900D92A830B107D9F7E9
S113011022E0A8E0B2E001C01D92AD30B207E1F7E1
S113012010E0C3E7D0E000E005C021970109802F6B
S1130130FE019CD2C237D10780E00807B1F751D045
S1130140D0C25ECFFC011182108208957894529A35
S11301505A9A5398EFE6F0E0808181608083089595
S1130160CF92DF92EF92FF92FC015A984B9BFECF05
S113017011821082A1E8B0E09C9191609C9310924E
S11301808500109284004B99FECFA1E8B0E09C91C9
S11301909E6F9C9340918400509185002081318111
S11301A0AFEFBFEF54D2640F751F811D911D60D155
S11301B020E030E040E85DE3E7D12CD16B017C0125
S11301C0CB015AD0C701B60151D120E030E040E262
S11301D051E4B8D01FD1CB01FF90EF90DF90CF90C6
S11301E00895789488E092E0B1DF279A31D080E0D6
S11301F092E06AD088E092E0B3DFEC0189E034D089
S1130200CE013AD085E092E05FD0F4CF1F920F92F6
S11302100FB60F9211248F939F9385B1805885B99F
S113022080910802909109020196909309028093AB
S1130230080210928500109284009F918F910F9074
S11302400FBE0F901F90189588E092E07BCF089521
S11302501092C50087E68093C40088E98093C100AA
S113026086E08093C2000895E0ECF0E0908195FF71
S1130270FDCF8093C60008950F931F93CF93DF9310
S1130280CDB7DEB764970FB6F894DEBF0FBECDBF0F
S11302904AE0BE016F5F7F4FF1D18981882349F025
S11302A08E010E5F1F4FE0DFF80181918F018111F4
S11302B0FACF64960FB6F894DEBF0FBECDBFDF91C0
S11302C0CF911F910F910895CF93DF93EC01888113
S11302D0882329F02196C8DF89918111FCCFDF9111
S11302E0CF9108951F920F920FB60F9211248F93FE
S11302F08091C60080930C028F910F900FBE0F90D7
S11303001F9018951F920F920FB60F9211248F937E
S11303108091CE0080930B028F910F900FBE0F90AF
S11303201F9018951F920F920FB60F9211248F935E
S11303308091D60080930A028F910F900FBE0F9088
S11303401F9018950CD0E6C0DED040F0D5D030F028
S113035021F45F3F19F0C7C0511110C1CAC0EBD0DE
S113036098F39923C9F35523B1F3951B550BBB2778
S1130370AA2762177307840738F09F5F5F4F220F25
S1130380331F441FAA1FA9F333D00E2E3AF0E0E81E
S113039030D091505040E695001CCAF729D0FE2F6A
S11303A027D0660F771F881FBB1F261737074807FC
S11303B0AB07B0E809F0BB0B802DBF01FF279358B2
S11303C05F4F2AF09E3F510568F08DC0D7C05F3F54
S11303D0ECF3983EDCF3869577956795B795F7959A
S11303E09F5FC9F7880F911D9695879597F9089592
S11303F0E1E0660F771F881FBB1F6217730784072E
S1130400BA0720F0621B730B840BBA0BEE1F88F73C
S1130410E095089598D088F09F5790F0B92F9927C8
S1130420B751A0F0D1F0660F771F881F991F1AF0FB
S1130430BA95C9F712C0B13081F09FD0B1E00895E8
S11304409CC0672F782F8827B85F39F0B93FCCF369
S1130450869577956795B395D9F73EF490958095F1
S1130460709561957F4F8F4F9F4F0895E89409C011
S113047097FB3EF490958095709561957F4F8F4FD3
S11304809F4F9923A9F0F92F96E9BB279395F695E9
S1130490879577956795B795F111F8CFFAF4BB0F67
S11304A011F460FF1BC06F5F7F4F8F4F9F4F16C0CB
S11304B0882311F096E911C0772321F09EE8872F55
S11304C0762F05C0662371F096E8862F70E060E011
S11304D02AF09A95660F771F881FDAF7880F96958A
S11304E0879597F9089597F99F6780E870E060E031
S11304F008959FEF80EC089500240A9416161706B9
S113050018060906089500240A9412161306140600
S113051005060895092E0394000C11F4882352F063
S1130520BB0F40F4BF2B11F460FF04C06F5F7F4F1B
S11305308F4F9F4F089557FD9058440F551F59F002
S11305405F3F71F04795880F97FB991F61F09F3FBC
S113055079F087950895121613061406551FF2CFE5
S11305604695F1DF08C0161617061806991FF1CF35
S113057086957105610508940895E894BB2766275C
S11305807727CB0197F908950BD0C4CFB5DF28F0B6
S1130590BADF18F0952309F0A6CFABCF1124EECF24
S11305A0CADFA0F3959FD1F3950F50E0551F629FCA
S11305B0F001729FBB27F00DB11D639FAA27F00DB8
S11305C0B11DAA1F649F6627B00DA11D661F829FDF
S11305D02227B00DA11D621F739FB00DA11D621FC4
S11305E0839FA00D611D221F749F3327A00D611DE1
S11305F0231F849F600D211D822F762F6A2F1124C3
S11306009F5750408AF0E1F088234AF0EE0FFF1F15
S1130610BB1F661F771F881F91505040A9F79E3F4C
S1130620510570F060CFAACF5F3FECF3983EDCF346
S1130630869577956795B795F795E7959F5FC1F789
S1130640FE2B880F911D9695879597F90895A29F83
S1130650B001B39FC001A39F700D811D1124911D92
S1130660B29F700D811D1124911D0895EE0FFF1F7F
S1130670881F8BBF0790F691E02D1994BB274A3051
S113068031F4992322F4BDE2909581959F4F01C0E6
S1130690BB27FB015527AA27880F991FAA1FA41758
S11306A010F0A41B83955051B9F7A05DAA3308F04C
S11306B0A95DA193009779F7B111B1931192CB0180
S11306C000C0DC01FC01672F71917723E1F73297B9
S11306D004C07C916D9370836291AE17BF07C8F319
S10906E00895F894FFCF19
S10B06E648656C6C6F0A0D00FD
S9030000FC
